:020000040800F2
:1000000000500020F5200008C1180008C71800089B
:10001000CD180008D3180008D91800080000000007
:10002000000000000000000000000000DF180008D1
:10003000EB18000800000000F7180008031900087A
:100040003D2100083D2100083D2100083D21000818
:100050003D2100083D2100083D2100083D21000808
:100060003D2100083D2100083D2100083D210008F8
:100070003D2100083D2100083D210008111900081C
:100080003D2100083D2100083D2100083D210008D8
:100090003D2100083D2100083D2100083D210008C8
:1000A0003D2100083D2100083D2100083D210008B8
:1000B0003D2100083D2100083D2100083D210008A8
:1000C0003D2100083D2100083D2100083D21000898
:1000D0003D2100083D2100083D2100083D21000888
:1000E0003D2100083D2100083D21000800000000DE
:1000F0000000000000000000000000000000000000
:0C01000000000000000000005FF808F1A3
:10010C0010B5054C237833B9044B13B10448AFF345
:10011C0000800123237010BD5C0000200000000053
:10012C00F439000808B5034B1BB103490348AFF37E
:10013C00008008BD0000000060000020F4390008B9
:10014C0080B483B000AF00237B6008E0094A7B6871
:10015C009B0013440022DA707B6801337B607B6860
:10016C00B3F58B7FF2DD00BF00BF0C37BD4680BC02
:10017C00704700BF3802002090B486B000AF07F182
:10018C00080484E8030011461A460B46FB8013460C
:10019C007B7100237B611AE0BA687B6913441149B7
:1001AC00FA8821F82320BA687B6913440D4A9B0016
:1001BC0013447A799A70BA687B691344094A9B0094
:1001CC00134497F82020DA707B6901337B61FB685C
:1001DC007A699A42E0DB00BF00BF1837BD4690BC7D
:1001EC00704700BF3802002080B584B000AF0023F8
:1001FC007B60AEE00023FB609FE00023BB6095E0DA
:10020C00FA687B681344591E564B83FB0132CB179B
:10021C00D21A13465B0013445B00CA1A002A0EDB89
:10022C00FA687B681344591E4E4B83FB0132CB1783
:10023C00D21A13465B0013445B00CA1A00E0052275
:10024C00494B9B5C1A4613469B0013443B603B682E
:10025C00042B02DD3B6801333B60FA6813465B01FB
:10026C009A1ABB681A443B681344404A002122F88E
:10027C002310FA6813465B019A1ABB681A443B6850
:10028C0013443A4A9B001344FF229A70FA681346AF
:10029C005B019A1ABB681A443B681344334A9B00AF
:1002AC0013440522DA70FA687B68D1182D4B83FB56
:1002BC000132CB17D21A13465B0013445B00CA1AE7
:1002CC00294B9B5C1A4613469B0013443B603B68CE
:1002DC00042B02DD3B6801333B60FA6813465B017B
:1002EC009A1ABB681A443B681344204A002122F82E
:1002FC002310FA6813465B019A1ABB681A443B68D0
:10030C0013441A4A9B001344FF229A70FA6813464E
:10031C005B019A1ABB681A443B681344134A9B004E
:10032C001344FF22DA70BB680133BB60BB68042B3B
:10033C007FF766AFFB680133FB60FB68082B7FF728
:10034C005CAF01F01FFDC82001F056FF7B68013344
:10035C007B607B68052B7FF74DAF00BF00BF10376C
:10036C00BD4680BDABAAAA2A00000020380200209E
:10037C0080B584B000AF0023BB604EE00023FB606F
:10038C0040E0BB685A1E13465B019B1A7B607B687E
:10039C00002B01DAF8237B60FA687B681344234A4C
:1003AC00782122F82310FA687B6813441F4A9B00BB
:1003BC001344FF229A70FA687B6813441B4A9B0013
:1003CC0013440522DA70BA6813465B019B1A7B60F2
:1003DC00FA687B681344154A782122F82310FA68CE
:1003EC007B681344114A9B001344FF229A70FA68ED
:1003FC007B6813440D4A9B001344FF22DA70FB68A0
:10040C000133FB60FB681E2BBBDD01F0BBFCC8207D
:10041C0001F0F2FEBB680133BB60BB68082BADDD9D
:10042C0000BF00BF1037BD4680BD00BF38020020A2
:10043C0080B586B000AF00237B6159E07A69134622
:10044C0012019B1A5B0003F26713FB604A4B1B689B
:10045C004A4AD35CBB604A4B1B687B60BB6803F0A9
:10046C000103002B12D17A6913465B019A1A7B683F
:10047C00D118BA6813469B0013440B443B61BB680C
:10048C00002B17DD3B6901333B6113E07B68C3F143
:10049C0004017A6913465B019B1A1944BA68134626
:1004AC009B0013440B443B61BB68002B02DD3B6992
:1004BC0001333B613B69002B15DB3B69B3F58B7F4B
:1004CC0011DCFB6899B22F4A3B6922F823102D4AA4
:1004DC003B699B001344FF229A702A4A3B699B009C
:1004EC001344FF22DA7000233B617B6901337B618B
:1004FC007B69082BA2DD01F045FC782001F07CFE25
:10050C001D4B1B6801331C4A13601B4B1B68052BCE
:10051C0022DD194B00221A60194B1B680133184A53
:10052C001360174B1B68042B16DD154B00221A6049
:10053C004FF4FA7001F060FE00237B6108E0114A71
:10054C007B699B0013440022DA707B6901337B6169
:10055C007B69B3F58B7FF2DD0B4B1B6801330A4AC9
:10056C001360094B1B68052B02DD074B00221A6038
:10057C0000BF1837BD4680BD7C0000200000002065
:10058C0080000020380200208800002080B586B052
:10059C0000AF00237B6000237B6100233B61A04BF9
:1005AC001B687B607A681346DB0013449B003B603E
:1005BC009C4B1B68022B00F0C880022B00F33C8183
:1005CC00002B02D0012B61D036E10123BB6059E036
:1005DC00954ABB6813441B787B6100233B6149E05F
:1005EC007B6903F00103002B12D17A6813465B017F
:1005FC009A1A3B69D1187A6913469B0013440B4431
:10060C00FB607B69002B17DDFB680133FB6013E09B
:10061C003B69C3F104017A6813465B019B1A1944C8
:10062C007A6913469B0013440B44FB607B69002BD7
:10063C0002DDFB680133FB60FB68002B15DBFB68FC
:10064C00B3F58B7F11DC3B6899B2784AFB6822F8D2
:10065C002310764AFB689B001344FF229A70734A5E
:10066C00FB689B001344B422DA700023FB603B69E7
:10067C0001333B616E4B1B683A699A42B0DBBB6835
:10068C000133BB60BB68022BA2DDD6E000237B618B
:10069C0052E000233B6149E07B6903F00103002B2E
:1006AC0012D17A6813465B019A1A3B69D1187A69A0
:1006BC0013469B0013440B44FB607B69002B17DD36
:1006CC00FB680133FB6013E03B69C3F104017A68FA
:1006DC0013465B019B1A19447A6913469B00134419
:1006EC000B44FB607B69002B02DDFB680133FB6074
:1006FC00FB68002B15DBFB68B3F58B7F11DC3B68CB
:10070C0099B24A4AFB6822F82310484AFB689B00BE
:10071C001344FF229A70454AFB689B001344B42291
:10072C00DA700023FB603B6901333B613B69042BAE
:10073C00B2DD7B6901337B617B69012BA9DD3C4B0D
:10074C001B6804333A4A136077E00423BB6063E010
:10075C00354ABB6813441B787B6100233B6149E03D
:10076C007B6903F00103002B12D07A6813465B01FE
:10077C009A1A3B69D1187A6913469B0013440B44AF
:10078C00FB607B69002B17DDFB680133FB6013E01A
:10079C003B69C3F104017A6813465B019B1A194447
:1007AC007A6913469B0013440B44FB607B69002B56
:1007BC0002DDFB680133FB60FB68002B15DBFB687B
:1007CC00B3F58B7F11DC3B6899B2184AFB6822F8B1
:1007DC002310164AFB689B001344FF229A70134A9D
:1007EC00FB689B001344B422DA700023FB603B6966
:1007FC0001333B610E4B19680E4B83FB0132CB1757
:10080C00D21A13465B0013445B00CA1A3B6993422D
:10081C00A6DBBB680133BB60BB68052B98DD0CE025
:10082C007800002084000020000000203802002006
:10083C0088000020ABAAAA2A00BF01F0A3FA32203C
:10084C0001F0DAFC144B1B680133134A1360124B92
:10085C001B68052B1CDD104B00221A600F4B1B680C
:10086C0001330E4A13600D4B1B68022B10DD0B4B32
:10087C0000221A600A4B1B680133094A1360084BAB
:10088C001B68092B04DD064B00221A60FFF758FC8D
:10089C0000BF1837BD4680BD8800002084000020B2
:1008AC007800002080B584B000AF0023FB600FE11E
:1008BC000023BB6005E1934B1B68002B03DD914BC0
:1008CC001B68013B00E005238F4AD35C1A46134694
:1008DC009B0013447B607B68042B02DD7B68013337
:1008EC007B60FA6813465B019A1ABB681A447B68F2
:1008FC001344864AB42122F82310FA6813465B018C
:10090C009A1ABB681A447B681344804A9B001344B0
:10091C00FF229A70FA6813465B019A1ABB681A4454
:10092C007B681344794A9B0013440322DA70754B9D
:10093C001B68D91C764B83FB0132CB17D21A13469A
:10094C005B0013445B00CA1A002A0EDD6D4B1B685A
:10095C00D91C6F4B83FB0132CB17D21A13465B00A9
:10096C0013445B00CA1A531E00E00523664AD35C8D
:10097C001A4613469B0013447B607B68042B02DDF4
:10098C007B6801337B60FA6813465B019A1ABB687B
:10099C001A447B6813445D4AB42122F82310FA6888
:1009AC0013465B019A1ABB681A447B681344574A76
:1009BC009B001344FF229A70FA6813465B019A1A43
:1009CC00BB681A447B681344504A9B0013440322AF
:1009DC00DA704C4B1B684C4AD35C1A4613469B008E
:1009EC0013447B607B68042B02DD7B6801337B60E6
:1009FC00FA6813465B019A1ABB681A447B68134465
:100A0C00424AB42122F82310FA6813465B019A1A61
:100A1C00BB681A447B6813443C4A9B001344FF2276
:100A2C009A70FA6813465B019A1ABB681A447B6881
:100A3C001344364A9B001344FF22DA70314B1B6877
:100A4C00D91C334B83FB0132CB17D21A13465B00F4
:100A5C0013445B00CA1A2C4B9B5C1A4613469B0032
:100A6C0013447B607B68042B02DD7B6801337B6065
:100A7C00FA6813465B019A1ABB681A447B681344E4
:100A8C00224AB42122F82310FA6813465B019A1A01
:100A9C00BB681A447B6813441C4A9B001344FF2216
:100AAC009A70FA6813465B019A1ABB681A447B6801
:100ABC001344164A9B001344FF22DA70BB680133BF
:100ACC00BB60BB68042B7FF7F6AEFB680133FB60A1
:100ADC00FB68082B7FF7ECAE01F054F9962001F07F
:100AEC008BFB084B1B680133064A1360054B1B68D4
:100AFC00052B02DD034B00221A6000BF1037BD46E8
:100B0C0080BD00BF880000200000002038020020BB
:100B1C00ABAAAA2A80B58EB000AF002387F8373075
:100B2C0078E000233B632EE00023FB6222E03A6B6B
:100B3C0013465B019A1AFB6A1344AE4A002122F851
:100B4C0023103A6B13465B019A1AFB6A1344A94AA9
:100B5C009B001344FF229A703A6B13465B019A1A5E
:100B6C00FB6A1344A34A9B001344B422DA70FB6A59
:100B7C000133FB62FB6A1E2BD9DD3B6B01333B63FC
:100B8C003B6B01333B633B6B082BCDDD01F0FAF87B
:100B9C00192001F031FB0023BB622EE000237B62A5
:100BAC0022E0BA6A13465B019A1A7B6A1344914A93
:100BBC00002122F82310BA6A13465B019A1A7B6A49
:100BCC0013448C4A9B001344FF229A70BA6A134652
:100BDC005B019A1A7B6A1344864A9B0013441E22BB
:100BEC00DA707B6A01337B627B6A1E2BD9DDBB6AB0
:100BFC000133BB62BB6A0133BB62BB6A082BCDDD20
:100C0C0001F0C0F8192001F0F7FA97F837300133EA
:100C1C0087F8373097F83730072B82D900233B629F
:100C2C002EE00023FB6122E03A6A13465B019A1A1C
:100C3C00FB6913446F4A002122F823103A6A1346C9
:100C4C005B019A1AFB6913446A4A9B001344FF2206
:100C5C009A703A6A13465B019A1AFB691344654A07
:100C6C009B0013440522DA70FB690133FB61FB69BD
:100C7C001E2BD9DD3B6A01333B623B6A01333B627D
:100C8C003B6A082BCDDD0023FB7676E001237B61EC
:100C9C002EE000233B6122E07A6913465B019A1A2D
:100CAC003B691344534A782122F823107A6913467E
:100CBC005B019A1A3B6913444E4A9B001344FF2272
:100CCC009A707A6913465B019A1A3B691344494A34
:100CDC009B001344B422DA703B6901333B613B69DE
:100CEC001E2BD9DD7B6901337B617B6901337B6111
:100CFC007B69082BCDDD01F045F8192001F07CFA59
:100D0C000123FB602EE00023BB6022E0FA6813464F
:100D1C005B019A1ABB681344364A782122F82310D7
:100D2C00FA6813465B019A1ABB681344314A9B005C
:100D3C001344FF229A70FA6813465B019A1ABB6837
:100D4C0013442C4A9B0013441E22DA70BB680133F7
:100D5C00BB60BB681E2BD9DDFB680133FB60FB68F5
:100D6C000133FB60FB68082BCDDD01F00BF819207B
:100D7C0001F042FAFB7E0133FB76FB7E072B85D913
:100D8C0001237B602EE000233B6022E07A6813464F
:100D9C005B019A1A3B681344164A782122F82310F7
:100DAC007A6813465B019A1A3B681344114A9B00FC
:100DBC001344FF229A707A6813465B019A1A3B68B7
:100DCC0013440C4A9B0013440522DA703B68013330
:100DDC003B603B681E2BD9DD7B6801337B607B68F5
:100DEC0001337B607B68082BCDDD00BF00BF38373B
:100DFC00BD4680BD3802002080B586B000AF002310
:100E0C007B6113E0994A7B699B001344FF229A7023
:100E1C00964A7B69F02122F82310944A7B699B0047
:100E2C0013440022DA707B6901337B617B69B3F573
:100E3C008B7FE7DD0023BB6070E000237B6162E009
:100E4C007A691346DB0013449B003B6000233B6133
:100E5C0053E00023FB6049E03B6903F00103002BE6
:100E6C0012D17A6913465B019A1AFB68D1183A6958
:100E7C0013469B0013440B447B603B69002B17DD2E
:100E8C007B6801337B6013E0FB68C3F104017A6972
:100E9C0013465B019B1A19443A6913469B00134491
:100EAC000B447B603B69002B02DD7B6801337B606C
:100EBC007B68002B15DB7B68B3F58B7F11DC3B6803
:100ECC0099B26A4A7B6822F82310684A7B689B00B7
:100EDC001344FF229A70654A7B689B001344B4222A
:100EEC00DA7000237B60FB680133FB60FA68BB6837
:100EFC009A42B1DB3B6901333B613B69052BA8DDB1
:100F0C007B6901337B617B69082B99DD00F03AFF2B
:100F1C00782001F071F9BB680133BB60BB68052B0D
:100F2C008BDD00237B6126E07B6999B27A691346DD
:100F3C005B019B1A05330A461146C9000A4492000C
:100F4C0091B24A4A22F823107A6913465B019B1A24
:100F5C000533464A9B001344FF229A707A69134664
:100F6C005B019B1A0533414A9B001344B422DA708F
:100F7C007B6901337B617B69082BD5DD00F002FFB7
:100F8C00782001F039F90023BB6069E000237B6114
:100F9C005BE000233B6152E00023FB6048E03B69CF
:100FAC0003F00103002B12D17A6913465B019A1AE4
:100FBC00FB68D1183A6913469B0013440B447B60C1
:100FCC003B69002B17DD7B6801337B6013E0FB680A
:100FDC00C3F104017A6913465B019B1A19443A69FF
:100FEC0013469B0013440B447B603B69002B02DDD2
:100FFC007B6801337B607B68002B14DB7B68B3F56B
:10100C008B7F10DC194A7B68B42122F82310174A15
:10101C007B689B001344FF229A70144A7B689B00E8
:10102C0013440022DA7000237B60FB680133FB6001
:10103C00FA68BB689A42B2DB3B6901333B613B699E
:10104C00052BA9DD7B6901337B617B69082BA0DD56
:10105C0000F098FE782001F0CFF8BB680133BB603C
:10106C00BB68052B92DD00237B6121E03802002058
:10107C007A6913465B019B1A0533134AB42122F893
:10108C0023107A6913465B019B1A05330E4A9B00A9
:10109C001344FF229A707A6913465B019B1A05333D
:1010AC00094A9B0013440022DA707B6901337B618F
:1010BC007B69082BDCDD00F065FE782001F09CF8E4
:1010CC0000BF1837BD4680BD3802002080B584B003
:1010DC0000AF0023BB604EE00023FB6040E0BB6828
:1010EC005A1E13465B019B1A7B607B68002B01DA4E
:1010FC00F8237B60FA687B681344234ADC2122F8CE
:10110C002310FA687B6813441F4A9B001344FF2288
:10111C009A70FA687B6813441B4A9B0013440122A3
:10112C00DA70BA6813465B019B1A7B60FA687B68BD
:10113C001344154AB42122F82310FA687B6813442F
:10114C00114A9B001344FF229A70FA687B6813447F
:10115C000D4A9B001344FF22DA70FB680133FB60DD
:10116C00FB681E2BBBDD00F00DFE962001F044F851
:10117C00BB680133BB60BB68082BADDD00BF00BF93
:10118C001037BD4680BD00BF3802002080B588B046
:10119C0000AF06233B61FEF7D3FF00237B6193E096
:1011AC000023FB6155E07A69FB69D31A002B4DDBF8
:1011BC007A69FB69D31A082B48DC0023BB6142E037
:1011CC007A6913465B019B1AFB60BA69FB681A4487
:1011DC00FB6919465B01CB1A13447B607B68002BBF
:1011EC002EDB7B68B3F58B7F2ADC3D4A7B68B42110
:1011FC0022F823103A4A7B689B001344FF229A7012
:10120C00FB6901336FF0300202FB03F313F1FA0FA9
:10121C0010DBFB690133DBB21A4652001A44D200D0
:10122C00D31A1A46D1001A460B461344DBB2063BBE
:10123C00DAB200E003222A497B689B000B44DA7087
:10124C00BB690133BB61BB691E2BB9DDFB69013383
:10125C00FB61FA693B699A42A5DB0023BB6128E07C
:10126C007A6913465B019B1AFB60BA69FB681A44E6
:10127C003B6919465B01CB1A1344BB60BB68002B5E
:10128C0014DBBB68B3F58B7F10DC154ABB68F0210F
:10129C0022F82310124ABB689B001344FF229A7059
:1012AC000F4ABB689B0013440222DA70BB690133FE
:1012BC00BB61BB691E2BD3DD00F064FD6E2000F01A
:1012CC009BFF7B6901337B613B6907337A699A42E7
:1012DC007FF766AF00BF00BF2037BD4680BD00BFA3
:1012EC0038020020B0B596B002AF5C4B07F1240475
:1012FC001D460FCD0FC40FCD0FC42B6823603B468A
:10130C0024220021184602F067FB0023BB649AE0FC
:10131C000023FB6414E0FB6C9B0050333B4453F8FC
:10132C002C3C4F4AD35C4F48F96C0093FF23782236
:10133C00C900014403C9FEF71FFFFB6C0133FB64BA
:10134C00FB6C082BE7DD00F01DFD012000F054FFC5
:10135C000023FB6471E0FB6C9B0050333B4453F85F
:10136C00503C002B33D0FB6C9B0050333B4453F868
:10137C002C3C5A1FFB6C9B0050333B4443F82C2CE9
:10138C00FB6C9B0050333B4453F82C3C042B51DC3E
:10139C00FB6C9B0050333B44052243F82C2CFB6C1C
:1013AC009B0050333B4453F8503C002B07D0FB6C54
:1013BC009B0050333B44002243F8502C3AE0FB6C2A
:1013CC009B0050333B44012243F8502C32E0FB6C21
:1013DC009B0050333B4453F82C3C5A1DFB6C9B0038
:1013EC0050333B4443F82C2CFB6C9B0050333B4458
:1013FC0053F82C3CFA2B1DDDFB6C9B0050333B440B
:10140C00FA2243F82C2CFB6C9B0050333B4453F8D2
:10141C00503C002B07D0FB6C9B0050333B4400220C
:10142C0043F8502C06E0FB6C9B0050333B440122EC
:10143C0043F8502CFB6C0133FB64FB6C082B8ADDEE
:10144C00BB6C0133BB64BB6CB3F5FA7FFFF660AFCA
:10145C0000BF00BF5037BD46B0BD00BF0C3A0008FE
:10146C00403A00080800002080B58AB000AF00F0B8
:10147C0061FE00F08AF800F03BF900F01BF900F077
:10148C00C9F800237B6204E0FFF72CFF7B6A013371
:10149C007B627B6A042BF7DDFEF752FE00233B6276
:1014AC0004E0FFF773FE3B6A01333B623B6A0C2B93
:1014BC00F7DDFEF745FE0023FB6104E0FFF706FEB7
:1014CC00FB690133FB61FB690C2BF7DDFEF738FE82
:1014DC000023BB6104E0FFF78FFCBB690133BB61E8
:1014EC00BB690C2BF7DDFEF72BFE00237B6104E0C0
:1014FC00FFF710FB7B6901337B617B690C2BF7DDFC
:10150C00FEF71EFE00233B6104E0FFF7CBF93B69BD
:10151C0001333B613B69312BF7DDFEF711FE0023F4
:10152C00FB6004E0FFF732F8FB680133FB60FB68FB
:10153C00B3F5A07FF6DBFEF703FE0023BB6004E0EF
:10154C00FEF776FFBB680133BB60BB689A2BF7DDF7
:10155C00FEF7F6FD00237B6004E0FEF745FE7B689A
:10156C0001337B607B68042BF7DDFEF7E9FD00237C
:10157C003B6004E0FEF7FCFE3B6801333B603B68DC
:10158C00042BF7DDFEF7DCFD7BE780B590B000AFF8
:10159C0007F1180328220021184602F01DFA3B1D02
:1015AC0000221A605A609A60DA601A610123BB61EA
:1015BC004FF48033FB6100233B620123BB620223A7
:1015CC007B634FF48033BB634FF4E013FB6307F191
:1015DC001803184601F08AFB0346002B01D000F0DB
:1015EC00E7F80F237B600223BB600023FB604FF402
:1015FC0080633B6100237B613B1D0221184601F097
:10160C00F7FD0346002B01D000F0D2F800BF4037A5
:10161C00BD4680BD80B586B000AF07F1080300223F
:10162C001A605A609A60DA603B4600221A605A606F
:10163C001E4B1F4A1A601D4B00225A601B4B002286
:10164C009A601A4B1D22DA60184B00221A61174B54
:10165C0000225A61154B00229A61144801F02EFFAA
:10166C000346002B01D000F0A3F84FF48053BB606D
:10167C0007F1080319460D4801F06FFF0346002BD4
:10168C0001D000F095F800233B6000237B603B46C3
:10169C001946064802F01EF90346002B01D000F053
:1016AC0087F800BF1837BD4680BD00BF8C000020F6
:1016BC00002C014080B582B000AF0C4B5B690B4A2B
:1016CC0043F001035361094B5B6903F001037B6039
:1016DC007B68002200210F2000F089FE0F2000F013
:1016EC00A2FE00BF0837BD4680BD00BF00100240FF
:1016FC0080B588B000AF07F1100300221A605A6061
:10170C009A60DA60274B9B69264A43F01003936179
:10171C00244B9B6903F01003FB60FB68214B9B6916
:10172C00204A43F0200393611E4B9B6903F0200376
:10173C00BB60BB681B4B9B691A4A43F00403936163
:10174C00184B9B6903F004037B607B6800224FF409
:10175C000051154801F0B2FA00220221134801F0A1
:10176C00ADFA4FF400533B6101237B610023BB6155
:10177C000223FB6107F1100319460B4801F01AF91B
:10178C0002233B6101237B610023BB610223FB61CC
:10179C0007F110031946054801F00CF900BF20377A
:1017AC00BD4680BD00100240001001400008014001
:1017BC0080B400AF72B600BFFEE7000080B485B005
:1017CC0000AF154B9B69144A43F001039361124B14
:1017DC009B6903F00103BB60BB680F4BDB690E4ACE
:1017EC0043F08053D3610C4BDB6903F080537B6077
:1017FC007B680A4B5B68FB60FB6823F0E063FB6073
:10180C00FB6843F00073FB60044AFB68536000BF45
:10181C001437BD4680BC70470010024000000140E8
:10182C0080B584B000AF78607B681B681D4A93421A
:10183C0033D11D4B9B691C4A43F4006393611A4BD3
:10184C009B6903F40063FB60FB68184B184A1A6031
:10185C00164B10225A60154B00229A60134B8022B3
:10186C00DA60124B4FF480721A61104B4FF48062A5
:10187C005A610E4B20229A610C4B0022DA610B4804
:10188C0000F0ECFD0346002B01D0FFF791FF7B68C5
:10189C00064A1A62054A7B68536200BF1037BD4680
:1018AC0080BD00BF002C014000100240D40000207D
:1018BC005800024080B400AFFEE780B400AFFEE7F2
:1018CC0080B400AFFEE780B400AFFEE780B400AF99
:1018DC00FEE780B400AF00BFBD4680BC704780B44B
:1018EC0000AF00BFBD4680BC704780B400AF00BFE6
:1018FC00BD4680BC704780B500AF00F061FC00BFF6
:10190C0080BD000080B500AF024800F0D7FE00BFDC
:10191C0080BD00BFD400002080B400AF00BFBD4626
:10192C0080BC704780B483B000AF00237B601DE0A7
:10193C007A6813465B001344114A4FF6FF7122F884
:10194C0013107A6813465B00134401330C4A0021D0
:10195C0022F813107A6813465B0013440233084ACA
:10196C00002122F813107B6801337B607B682F2BDE
:10197C00DEDD00BF00BF0C37BD4680BC704700BF2A
:10198C001801002080B586B000AF78600B46FB7064
:10199C00786800F035FAFB78002B02D000237B61CD
:1019AC0001E048237B610023FB749AE0FA7C134628
:1019BC005B001344FB604F4B1B781A46FB7CC3F156
:1019CC00070342FA03F303F00103002B12D07A69E8
:1019DC00FB6813440133484A32F813309AB27969E0
:1019EC00FB680B44013342F0020291B2424A22F8E6
:1019FC00131011E07A69FB68134401333E4A32F844
:101A0C0013309AB27969FB680B44013322F002025D
:101A1C0091B2394A22F81310364B5B781A46FB7C8C
:101A2C00C3F1070342FA03F303F00103002B12D0B6
:101A3C007A69FB68134419332F4A32F813309AB27F
:101A4C007969FB680B44193342F0020291B22A4ABD
:101A5C0022F8131011E07A69FB6813441933264AF3
:101A6C0032F813309AB27969FB680B44193322F0BF
:101A7C00020291B2204A22F813101E4B9B781A4690
:101A8C00FB7CC3F1070342FA03F303F00103002BC1
:101A9C0012D07A69FB6813443133174A32F8133089
:101AAC009AB27969FB680B44313342F0020291B26D
:101ABC00114A22F8131011E07A69FB681344313390
:101ACC000D4A32F813309AB27969FB680B44313302
:101ADC0022F0020291B2084A22F81310FB7C013367
:101AEC00FB74FB7C072B7FF661AF00BF00BF183780
:101AFC00BD4680BD940600201801002080B582B040
:101B0C0000AF00237B60B4E00023FB70AAE0002050
:101B1C0000F076F95B4A7B6813441B781A46FB7815
:101B2C00C3F1070342FA03F303F00103002B20D0A7
:101B3C00FA7813465B001344591C7A6813465B0011
:101B4C001344DB000B44504A32F8133099B2FA7844
:101B5C0013465B001344581C7A6813465B0013440D
:101B6C00DB00034441F0020291B2474A22F8131001
:101B7C001FE0FA7813465B001344591C7A6813462D
:101B8C005B001344DB000B443F4A32F8133099B22C
:101B9C00FA7813465B001344581C7A6813465B00B2
:101BAC001344DB00034421F0020291B2364A22F8BE
:101BBC001310012000F024F9324A7B6813441B787F
:101BCC001A46FB78C3F1070342FA03F303F001034F
:101BDC00002B22D0FA7813465B00134403F1490121
:101BEC007A6813465B001344DB000B44264A32F838
:101BFC00133099B2FA7813465B00134403F1490091
:101C0C007A6813465B001344DB00034441F0020284
:101C1C0091B21D4A22F8131021E0FA7813465B00AA
:101C2C00134403F149017A6813465B001344DB004B
:101C3C000B44154A32F8133099B2FA7813465B000C
:101C4C00134403F149007A6813465B001344DB002C
:101C5C00034421F0020291B20B4A22F81310FB78D4
:101C6C000133FB70FB78072B7FF651AF7B68013398
:101C7C007B607B68022B7FF747AF00BF00BF083744
:101C8C00BD4680BD940600201801002080B584B0AC
:101C9C0000AF7860374B1B680133364A1360354B05
:101CAC001B68B3F58B7F26DD324B00221A60324B5A
:101CBC001B681A6A41F211131340002B0FD12E4BE3
:101CCC001B681A6A40F244431340002B07D12A4B7D
:101CDC001B681A68284B1B6822F001021A60264BFD
:101CEC001B68DA68244B1B6822F48072DA60234884
:101CFC0000F06EFC39E01F4B1B68B3F58B7F24D1D1
:101D0C001C4B1B6803F00103002B0ED00023FB605F
:101D1C0007E01B4AFB68002122F81310FB68013313
:101D2C00FB60FB68222BF4DD1FE00023BB6008E0A6
:101D3C00BB684833124A002122F81310BB680133E8
:101D4C00BB60BB68222BF3DD0FE00A4B1B685A1CEF
:101D5C00084B1B6803F00103002B14BF0123002365
:101D6C00DBB219461046FFF70DFE00BF1037BD461B
:101D7C0080BD00BF980600208C000020D4000020FD
:101D8C001801002080B500AFFFF7CCFDFFF7B6FEC1
:101D9C00164B1B6A164A0121184600F095FD134B91
:101DAC001B6A134A0021184600F08EFD0F4B1B686E
:101DBC0000225A620D4B186A0E4990230E4A00F00D
:101DCC00A7FB0A4B1B68DA68084B1B6842F480724D
:101DDC00DA60064B1B681A68044B1B6842F0010260
:101DEC001A60064B01221A7000BF80BD8C000020C7
:101DFC00991C0008180100200C0801409C060020CA
:101E0C0080B485B000AF7860964A7B689B00134421
:101E1C009B78002B15D1934A7B689B001344DA788E
:101E2C00914B1A708F4A7B689B001344DA788E4B67
:101E3C005A708C4A7B689B001344DA788A4B9A70F0
:101E4C0047E1884A7B689B0013449B78C3F1FF02EF
:101E5C0084497B689B000B44DB7802FB03F31B1269
:101E6C00FB60804A7B6832F82330804AA2FB032354
:101E7C005B099BB2052B00F22C8101A252F823F0D6
:101E8C00A51E0008EF1E0008511F0008AF1F000818
:101E9C00112000087D200008724A7B689B001344C7
:101EAC00DA78714B1A706F4A7B689B001344DB78AD
:101EBC001A46FB68D31A6B497A6831F8222002FB68
:101ECC0003F36A4AA2FB03235B09DAB2FB68DBB2B9
:101EDC001344DAB2644B5A70FB68DAB2624B9A70F4
:101EEC00F7E0604A7B689B001344DB781A46FB687A
:101EFC00D01A5C4A7B6832F823205C4BA3FB02139C
:101F0C0059090B461B015B1A9B00D31A9BB2C3F1F8
:101F1C003C0300FB03F3554AA2FB03235B09DAB233
:101F2C00FB68DBB21344DAB24F4B1A704D4A7B6834
:101F3C009B001344DA784C4B5A70FB68DAB24A4B6C
:101F4C009A70C6E0FB68DAB2474B1A70454A7B6858
:101F5C009B001344DA78444B5A70424A7B689B00CE
:101F6C001344DB781A46FB68D01A3E4A7B6832F879
:101F7C0023203E4BA3FB021359090B461B015B1A92
:101F8C009B00D31A9BB200FB03F3384AA2FB03233A
:101F9C005B09DAB2FB68DBB21344DAB2324B9A70EB
:101FAC0097E0FB68DAB2304B1A702E4A7B689B00C4
:101FBC001344DB781A46FB68D01A2A4A7B6832F83D
:101FCC0023202A4BA3FB021359090B461B015B1A56
:101FDC009B00D31A9BB2C3F13C0300FB03F3234ACF
:101FEC00A2FB03235B09DAB2FB68DBB21344DAB25F
:101FFC001D4B5A701B4A7B689B001344DA781A4BB2
:10200C009A7066E0174A7B689B001344DB781A468B
:10201C00FB68D01A134A7B6832F82320134BA3FBBE
:10202C00021359090B461B015B1A9B00D31A9BB276
:10203C0000FB03F30D4AA2FB03235B09DAB2FB6836
:10204C00DBB21344DAB2084B1A70FB68DAB2064BF7
:10205C005A70044A7B689B001344DA78024B9A70DE
:10206C0037E000BF38020020940600208988888859
:10207C001A4A7B689B001344DA78194B1A70FB6878
:10208C00DAB2174B5A70154A7B689B001344DB7805
:10209C001A46FB68D01A114A7B6832F82320114B80
:1020AC00A3FB021359090B461B015B1A9B00D31AA5
:1020BC009BB2C3F13C0300FB03F30A4AA2FB0323CC
:1020CC005B09DAB2FB68DBB21344DAB2044B9A70E8
:1020DC0000BF00BF1437BD4680BC704738020020DB
:1020EC0094060020898888880C480D490D4A0023E5
:1020FC0002E0D458C4500433C4188C42F9D30A4AB1
:10210C000A4C002301E013600432A242FBD3FFF718
:10211C0003FC01F03DFCFFF7A7F97047000000201D
:10212C005C000020583B00085C000020A406002046
:10213C00FEE7000080B500AF084B1B68074A43F070
:10214C0010031360032000F047F90F2000F008F88B
:10215C00FFF734FB0023184680BD00BF002002406F
:10216C0080B582B000AF7860124B1A68124B1B78A6
:10217C0019464FF47A73B3FBF1F3B2FBF3F3184641
:10218C0000F05FF90346002B01D001230EE07B68C1
:10219C000F2B0AD8002279684FF0FF3000F027F996
:1021AC00064A7B681360002300E0012318460837B9
:1021BC00BD4680BD50000020580000205400002077
:1021CC0080B400AF054B1B781A46054B1B681344B3
:1021DC00034A136000BFBD4680BC70475800002006
:1021EC00A006002080B400AF024B1B681846BD4609
:1021FC0080BC7047A006002080B584B000AF78602A
:10220C00FFF7F0FFB8607B68FB60FB68B3F1FF3F42
:10221C0005D00A4B1B781A46FB681344FB6000BFC1
:10222C00FFF7E0FF0246BB68D31AFA689A42F7D868
:10223C0000BF00BF1037BD4680BD00BF5800002056
:10224C0080B485B000AF78607B6803F00703FB6057
:10225C000C4BDB68BB60BA684FF6FF031340BB60E6
:10226C00FB681A02BB68134343F0BF6343F40033AB
:10227C00BB60044ABB68D36000BF1437BD4680BC4A
:10228C00704700BF00ED00E080B400AF044BDB688A
:10229C001B0A03F007031846BD4680BC704700BFFD
:1022AC0000ED00E080B483B000AF0346FB7197F9FA
:1022BC000730002B0BDBFB7903F01F02064997F963
:1022CC0007305B09012000FA02F241F8232000BF1D
:1022DC000C37BD4680BC704700E100E080B483B091
:1022EC0000AF03463960FB7197F90730002B0ADB0E
:1022FC003B68DAB20C4997F907301201D2B20B44A1
:10230C0083F800230AE03B68DAB20849FB7903F052
:10231C000F03043B1201D2B20B441A7600BF0C37E8
:10232C00BD4680BC704700BF00E100E000ED00E05E
:10233C0080B489B000AFF860B9607A60FB6803F0D4
:10234C000703FB61FB69C3F10703042B28BF0423BC
:10235C00BB61FB690433062B02D9FB69033B00E02C
:10236C0000237B614FF0FF32BB6902FA03F3DA43BF
:10237C00BB681A407B699A404FF0FF317B6901FAC8
:10238C0003F3D9437B680B40134318462437BD46EF
:10239C0080BC704780B582B000AF78607B68013B31
:1023AC00B3F1807F01D301230FE00A4A7B68013B24
:1023BC0053600F214FF0FF30FFF790FF054B0022C9
:1023CC009A60044B07221A60002318460837BD4652
:1023DC0080BD00BF10E000E080B582B000AF786037
:1023EC007868FFF72DFF00BF0837BD4680BD80B56C
:1023FC0086B000AF0346B9607A60FB7300237B6143
:10240C00FFF742FF78617A68B9687869FFF790FF47
:10241C00024697F90F3011461846FFF75FFF00BFD1
:10242C001837BD4680BD80B582B000AF0346FB7146
:10243C0097F907301846FFF735FF00BF0837BD4640
:10244C0080BD80B582B000AF78607868FFF7A2FFDE
:10245C00034618460837BD4680BD000080B485B0E1
:10246C0000AF78600023FB607B68002B01D1012357
:10247C0043E07B681B681A46224B1344224AA2FB9A
:10248C0003231B099A007B681A647B681F4ADA6372
:10249C007B68022283F821207B681B681B68FB6029
:1024AC00FB6823F47F5323F03003FB607B685A688E
:1024BC007B689B681A437B68DB681A437B681B69E3
:1024CC001A437B685B691A437B689B691A437B6878
:1024DC00DB691343FA681343FB607B681B68FA687B
:1024EC001A607B6800229A637B68012283F82120A2
:1024FC007B68002283F82020002318461437BD4641
:10250C0080BC7047F8FFFDBFCDCCCCCC00000240A6
:10251C0080B586B000AFF860B9607A603B6000238C
:10252C00FB75FB6893F82030012B01D102234AE0A4
:10253C00FB68012283F82020FB6893F82130012BE3
:10254C003AD1FB68022283F82120FB6800229A63AF
:10255C00FB681B681A68FB681B6822F001021A6092
:10256C003B687A68B968F86800F0F6F9FB68DB6AD2
:10257C00002B08D0FB681B681A68FB681B6842F0CC
:10258C000E021A600FE0FB681B681A68FB681B6878
:10259C0022F004021A60FB681B681A68FB681B684F
:1025AC0042F00A021A60FB681B681A68FB681B6819
:1025BC0042F001021A6005E0FB68002283F820203B
:1025CC000223FB75FB7D18461837BD4680BD000005
:1025DC0080B584B000AF78600023FB737B6893F800
:1025EC002130022B05D07B6804229A630123FB73F4
:1025FC0051E07B681B681A687B681B6822F00E022E
:10260C001A607B681B681A687B681B6822F00102E1
:10261C001A607B681B68224A934229D07B681B682E
:10262C00204A934222D07B681B681F4A93421AD0DF
:10263C007B681B681D4A934212D07B681B681C4A3E
:10264C0093420AD07B681B681A4A934202D14FF41A
:10265C0080130EE04FF080730BE04FF4803308E0F2
:10266C004FF4805305E04FF4807302E0102300E038
:10267C000123114A53607B68012283F821207B6877
:10268C00002283F820207B685B6B002B03D07B68D7
:10269C005B6B78689847FB7B18461037BD4680BD4E
:1026AC00080002401C00024030000240440002407E
:1026BC00580002406C0002400000024080B584B01B
:1026CC0000AF78607B68DB6B1B68FB607B681B680A
:1026DC001B68BB607B681B6C04229A40FB68134030
:1026EC00002B4FD0BB6803F00403002B4AD07B684F
:1026FC001B681B6803F02003002B07D17B681B6849
:10270C001A687B681B6822F004021A607B681B68DD
:10271C00664A934229D07B681B68654A934222D053
:10272C007B681B68634A93421AD07B681B68624AB9
:10273C00934212D07B681B68604A93420AD07B6834
:10274C001B685F4A934202D14FF480030EE04FF0B6
:10275C0080630BE04FF4802308E04FF4804305E0E6
:10276C004FF4806302E0402300E00423554A536099
:10277C007B68DB6A002B00F094807B68DB6A7868EE
:10278C0098478EE07B681B6C02229A40FB681340D2
:10279C00002B56D0BB6803F00203002B51D07B6892
:1027AC001B681B6803F02003002B0BD17B681B6894
:1027BC001A687B681B6822F00A021A607B68012287
:1027CC0083F821207B681B68384A934229D07B68A8
:1027DC001B68374A934222D07B681B68354A934268
:1027EC001AD07B681B68344A934212D07B681B68F2
:1027FC00324A93420AD07B681B68314A934202D119
:10280C004FF400130EE04FF000730BE04FF4003365
:10281C0008E04FF4005305E04FF4007302E020236E
:10282C0000E00223274A53607B68002283F82020B3
:10283C007B689B6A002B34D07B689B6A78689847CE
:10284C002FE07B681B6C08229A40FB681340002B1E
:10285C0028D0BB6803F00803002B23D07B681B68CF
:10286C001A687B681B6822F00E021A607B681A6C6F
:10287C007B68DB6B012101FA02F25A607B68012252
:10288C009A637B68012283F821207B68002283F8FD
:10289C0020207B681B6B002B04D07B681B6B78683B
:1028AC00984700BF00BF1037BD4680BD08000240EE
:1028BC001C0002403000024044000240580002401C
:1028CC006C0002400000024080B487B000AFF8609A
:1028DC000B467A60FB720023FB75FB6893F8203083
:1028EC00012B01D1022331E0FB68012283F8202067
:1028FC00FB6893F82130012B21D1FB7A032B1BD8D9
:10290C0001A252F823F000BF252900082D29000848
:10291C00352900083D290008FB687A689A6210E0A6
:10292C00FB687A68DA620CE0FB687A681A6308E084
:10293C00FB687A685A6304E00123FB7501E001230C
:10294C00FB75FB68002283F82020FB7D18461C37A2
:10295C00BD4680BC704700BF80B485B000AFF86046
:10296C00B9607A603B60FB681A6CFB68DB6B012119
:10297C0001FA02F25A60FB681B683A685A60FB68FD
:10298C005B68102B08D1FB681B687A689A60FB683F
:10299C001B68BA68DA6007E0FB681B68BA689A6063
:1029AC00FB681B687A68DA6000BF1437BD4680BCD0
:1029BC007047000080B48BB000AF786039600023A2
:1029CC007B6200233B6269E101227B6A02FA03F31A
:1029DC00FB613B681B68FA691340BB61BA69FB6910
:1029EC009A4240F058813B685B689A4A93425ED0A9
:1029FC00984A934275D8984A934258D0964A934233
:102A0C006FD8964A934252D0944A934269D8944ACA
:102A1C0093424CD0924A934263D8924A934246D006
:102A2C00904A93425DD8122B2AD8122B59D801A266
:102A3C0052F823F0BB2A0008952A0008A72A0008A0
:102A4C00E92A0008EF2A0008EF2A0008EF2A0008FC
:102A5C00EF2A0008EF2A0008EF2A0008EF2A0008E6
:102A6C00EF2A0008EF2A0008EF2A0008EF2A0008D6
:102A7C00EF2A0008EF2A00089D2A0008B12A000856
:102A8C00794A934213D02CE03B68DB683B6229E027
:102A9C003B68DB6804333B6224E03B68DB6808334B
:102AAC003B621FE03B68DB680C333B621AE03B681F
:102ABC009B68002B02D104233B6213E03B689B68AC
:102ACC00012B05D108233B627B68FA691A6109E086
:102ADC0008233B627B68FA695A6103E000233B627E
:102AEC0000E000BFBB69FF2B01D87B6801E07B686D
:102AFC0004337B61BB69FF2B02D87B6A9B0002E02D
:102B0C007B6A083B9B003B617B691A680F213B6920
:102B1C0001FA03F3DB431A40396A3B6901FA03F308
:102B2C001A437B691A603B685B6803F08053002B87
:102B3C0000F0B1804D4B9B694C4A43F0010393610B
:102B4C004A4B9B6903F00103BB60BB68484A7B6A34
:102B5C009B08023352F82330FB607B6A03F00303BB
:102B6C009B000F2202FA03F3DB43FA681340FB606D
:102B7C007B68404A934213D07B683F4A93420DD006
:102B8C007B683E4A934207D07B683D4A934201D111
:102B9C00032306E0042304E0022302E0012300E007
:102BAC0000237A6A02F0030292009340FA681343FE
:102BBC00FB602F497B6A9B080233FA6841F823209B
:102BCC003B685B6803F48033002B06D02D4B1A68EE
:102BDC002C49BB6913430B6006E02A4B1A68BB698E
:102BEC00DB43284913400B603B685B6803F40033FC
:102BFC00002B06D0234B5A682249BB6913434B6008
:102C0C0006E0204B5A68BB69DB431E4913404B60FE
:102C1C003B685B6803F48013002B06D0194B9A6851
:102C2C001849BB6913438B6006E0164B9A68BB6965
:102C3C00DB43144913408B603B685B6803F400135F
:102C4C00002B21D00F4BDA680E49BB691343CB60C4
:102C5C0021E000BF000032100000311000002210F3
:102C6C000000211000001210000011100010024092
:102C7C000000014000080140000C01400010014020
:102C8C0000140140000401400B4BDA68BB69DB43C4
:102C9C0009491340CB607B6A01337B623B681A683D
:102CAC007B6A22FA03F3002B7FF48EAE00BF00BFC9
:102CBC002C37BD4680BC70470004014080B483B003
:102CCC0000AF78600B467B8013467B707B78002BC3
:102CDC0003D07A887B681A6103E07B881A047B68CE
:102CEC001A6100BF0C37BD4680BC704780B586B0FA
:102CFC0000AF78607B68002B01D1012372E27B6806
:102D0C001B6803F00103002B00F08780924B5B687B
:102D1C0003F00C03042B0CD08F4B5B6803F00C03FB
:102D2C00082B12D18C4B5B6803F48033B3F5803FD6
:102D3C000BD1894B1B6803F40033002B6CD07B68E0
:102D4C005B68002B68D101234CE27B685B68B3F5B0
:102D5C00803F06D1804B1B687F4A43F4803313605D
:102D6C002EE07B685B68002B0CD17B4B1B687A4A8E
:102D7C0023F480331360784B1B68774A23F4802349
:102D8C0013601DE07B685B68B3F5A02F0CD1724B10
:102D9C001B68714A43F4802313606F4B1B686E4AA7
:102DAC0043F4803313600BE06B4B1B686A4A23F4CB
:102DBC0080331360684B1B68674A23F480231360CD
:102DCC007B685B68002B13D0FFF70CFA386108E0C6
:102DDC00FFF708FA02463B69D31A642B01D9032387
:102DEC0000E25D4B1B6803F40033002BF0D014E0C1
:102DFC00FFF7F8F9386108E0FFF7F4F902463B6990
:102E0C00D31A642B01D90323ECE1534B1B6803F455
:102E1C000033002BF0D100E000BF7B681B6803F08F
:102E2C000203002B63D04C4B5B6803F00C03002BAC
:102E3C000BD0494B5B6803F00C03082B1CD1464BA1
:102E4C005B6803F48033002B16D1434B1B6803F0F3
:102E5C000203002B05D07B681B69012B01D00123D9
:102E6C00C0E13D4B1B6823F0F8027B685B69DB001B
:102E7C00394913430B603AE07B681B69002B20D067
:102E8C00364B01221A60FFF7ADF9386108E0FFF705
:102E9C00A9F902463B69D31A022B01D90323A1E1FC
:102EAC002D4B1B6803F00203002BF0D02A4B1B6840
:102EBC0023F0F8027B685B69DB00274913430B6046
:102ECC0015E0264B00221A60FFF78CF9386108E0F8
:102EDC00FFF788F902463B69D31A022B01D9032369
:102EEC0080E11D4B1B6803F00203002BF0D17B68C3
:102EFC001B6803F00803002B3AD07B689B69002BFE
:102F0C0019D0174B01221A60FFF76CF9386108E0F1
:102F1C00FFF768F902463B69D31A022B01D9032348
:102F2C0060E10D4B5B6A03F00203002BF0D0012033
:102F3C0000F0A6FA1CE00A4B00221A60FFF752F9C7
:102F4C0038610FE0FFF74EF902463B69D31A022BAA
:102F5C0008D9032346E100BF0010024000004242A2
:102F6C0080044242924B5B6A03F00203002BE9D1CE
:102F7C007B681B6803F00403002B00F0A680002381
:102F8C00FB758B4BDB6903F08053002B0DD1884B09
:102F9C00DB69874A43F08053D361854BDB6903F0CF
:102FAC008053BB60BB680123FB75824B1B6803F429
:102FBC008073002B18D17F4B1B687E4A43F48073BF
:102FCC001360FFF70FF9386108E0FFF70BF90246C1
:102FDC003B69D31A642B01D9032303E1754B1B689E
:102FEC0003F48073002BF0D07B68DB68012B06D1D7
:102FFC006F4B1B6A6E4A43F0010313622DE07B6832
:10300C00DB68002B0CD16A4B1B6A694A23F0010365
:10301C001362674B1B6A664A23F0040313621CE0BD
:10302C007B68DB68052B0CD1614B1B6A604A43F053
:10303C00040313625E4B1B6A5D4A43F00103136287
:10304C000BE05B4B1B6A5A4A23F001031362584B8B
:10305C001B6A574A23F0040313627B68DB68002B5E
:10306C0015D0FFF7BFF838610AE0FFF7BBF802464E
:10307C003B69D31A41F28832934201D90323B1E060
:10308C004B4B1B6A03F00203002BEED014E0FFF74E
:10309C00A9F838610AE0FFF7A5F802463B69D31A94
:1030AC0041F28832934201D903239BE0404B1B6AC7
:1030BC0003F00203002BEED1FB7D012B05D13C4B21
:1030CC00DB693B4A23F08053D3617B68DB69002BBF
:1030DC0000F08780364B5B6803F00C03082B61D043
:1030EC007B68DB69022B46D1334B00221A60FFF759
:1030FC0079F8386108E0FFF775F802463B69D31A96
:10310C00022B01D903236DE0294B1B6803F00073DC
:10311C00002BF0D17B681B6AB3F5803F08D1244BA0
:10312C005B6823F400327B689B68214913434B6036
:10313C001F4B5B6823F474127B68196A7B685B6AAB
:10314C000B431B4913434B601B4B01221A60FFF7C7
:10315C0049F8386108E0FFF745F802463B69D31A95
:10316C00022B01D903233DE0114B1B6803F00073C4
:10317C00002BF0D035E0104B00221A60FFF732F82C
:10318C00386108E0FFF72EF802463B69D31A022B90
:10319C0001D9032326E0064B1B6803F00073002BB8
:1031AC00F0D11EE07B68DB69012B07D1012319E00C
:1031BC000010024000700040600042420B4B5B6804
:1031CC00FB60FB6803F480327B681B6A9A4206D171
:1031DC00FB6803F470127B685B6A9A4201D001238E
:1031EC0000E0002318461837BD4680BD0010024091
:1031FC0080B584B000AF786039607B68002B01D15A
:10320C000123D0E06A4B1B6803F007033A689A422B
:10321C0010D9674B1B6823F0070265493B681343C1
:10322C000B60634B1B6803F007033A689A4201D0AA
:10323C000123B8E07B681B6803F00203002B20D04D
:10324C007B681B6803F00403002B05D0594B5B68AB
:10325C00584A43F4E06353607B681B6803F008032F
:10326C00002B05D0534B5B68524A43F460535360B8
:10327C00504B5B6823F0F0027B689B684D4913430D
:10328C004B607B681B6803F00103002B40D07B680C
:10329C005B68012B07D1474B1B6803F40033002BF1
:1032AC0015D101237FE07B685B68022B07D1414B72
:1032BC001B6803F00073002B09D1012373E03D4B15
:1032CC001B6803F00203002B01D101236BE0394B87
:1032DC005B6823F003027B685B68364913434B60E1
:1032EC00FEF780FFF8600AE0FEF77CFF0246FB6801
:1032FC00D31A41F28832934201D9032353E02D4B68
:10330C005B6803F00C027B685B689B009A42EBD114
:10331C00274B1B6803F007033A689A4210D2244BE0
:10332C001B6823F0070222493B6813430B60204BB8
:10333C001B6803F007033A689A4201D0012332E07C
:10334C007B681B6803F00403002B08D0194B5B68E7
:10335C0023F4E0627B68DB68164913434B607B689F
:10336C001B6803F00803002B09D0124B5B6823F495
:10337C0060527B681B69DB000E4913434B6000F005
:10338C0021F802460B4B5B681B0903F00F030A493B
:10339C00CB5C22FA03F3094A1360094B1B681846ED
:1033AC00FEF7DEFE002318461037BD4680BD00BF79
:1033BC000020024000100240403B0008500000205A
:1033CC005400002090B48AB000AF294B3C1D0FCBA9
:1033DC0084E80F0040F201233B800023FB610023B3
:1033EC00BB6100237B6200237B6100233B62214B8A
:1033FC005B68FB61FB6903F00C03042B02D0082B08
:10340C0003D02BE01C4B3B622BE0FB699B0C03F0C5
:10341C000F0328333B4413F8243C7B61FB6903F412
:10342C008033002B12D0134B5B685B0C03F0010351
:10343C0028333B4413F8283CBB617B690E4A03FBE1
:10344C0002F2BB69B2FBF3F37B6204E07B690B4ACB
:10345C0002FB03F37B627B6A3B6202E0064B3B623E
:10346C0000BF3B6A18462837BD4690BC704700BF6A
:10347C00303A00080010024000127A0000093D00AA
:10348C0080B485B000AF78600A4B1B680A4AA2FB77
:10349C0003235B0A7A6802FB03F3FB6000BFFB6843
:1034AC005A1EFA60002BF9D100BF00BF1437BD467D
:1034BC0080BC704750000020D34D621080B582B0A4
:1034CC0000AF78607B68002B01D1012341E07B6861
:1034DC0093F83D30DBB2002B06D17B68002283F8D9
:1034EC003C207868FEF79CF97B68022283F83D202B
:1034FC007B681A687B6804331946104600F0F2F8B2
:10350C007B68012283F846207B68012283F83E20E9
:10351C007B68012283F83F207B68012283F84020DE
:10352C007B68012283F841207B68012283F84220CA
:10353C007B68012283F843207B68012283F84420B6
:10354C007B68012283F845207B68012283F83D20AB
:10355C00002318460837BD4680BD80B584B000AF47
:10356C00786039607B6893F83C30012B01D10223E1
:10357C00B3E07B68012283F83C207B68022283F84D
:10358C003D207B681B689B68FB60FB6823F077031E
:10359C00FB60FB6823F47F43FB607B681B68FA6865
:1035AC009A603B681B68B3F5005F3ED0B3F5005FD3
:1035BC0000F28780B3F5805F00F08580B3F5805F03
:1035CC007FD8702B1AD0702B7BD8602B50D0602BEF
:1035DC0077D8502B3CD0502B73D8402B58D0402B45
:1035EC006FD8302B64D0302B6BD8202B60D0202B95
:1035FC0067D8002B5CD0102B5AD062E07B6818681F
:10360C003B6899683B685A683B68DB6800F043F993
:10361C007B681B689B68FB60FB6843F07703FB606F
:10362C007B681B68FA689A604EE07B6818683B6898
:10363C0099683B685A683B68DB6800F02CF97B683A
:10364C001B689A687B681B6842F480429A603BE076
:10365C007B6818683B6859683B68DB681A4600F061
:10366C00A3F87B681B685021184600F0FAF82BE091
:10367C007B6818683B6859683B68DB681A4600F041
:10368C00C1F87B681B686021184600F0EAF81BE063
:10369C007B6818683B6859683B68DB681A4600F021
:1036AC0083F87B681B684021184600F0DAF80BE0C1
:1036BC007B681A683B681B681946104600F0D1F805
:1036CC0002E000BF00E000BF7B68012283F83D20D0
:1036DC007B68002283F83C20002318461037BD4637
:1036EC0080BD000080B485B000AF786039607B6825
:1036FC001B68FB607B68294A93420BD07B68B3F153
:10370C00804F07D07B68264A934203D07B68254ABA
:10371C00934208D1FB6823F07003FB603B685B6845
:10372C00FA681343FB607B681C4A93420BD07B689E
:10373C00B3F1804F07D07B68194A934203D07B6862
:10374C00184A934208D1FB6823F44073FB603B6832
:10375C00DB68FA681343FB60FB6823F080023B686C
:10376C005B691343FB607B68FA681A603B689A6874
:10377C007B68DA623B681A687B689A627B68074AE6
:10378C00934203D13B681A697B681A637B680122F8
:10379C005A6100BF1437BD4680BC7047002C0140F5
:1037AC00000400400008004080B487B000AFF8600F
:1037BC00B9607A60FB681B6A7B61FB681B6A23F04B
:1037CC000102FB681A62FB689B693B613B6923F051
:1037DC00F0033B617B681B013A6913433B617B69D6
:1037EC0023F00A037B617A69BB6813437B61FB6836
:1037FC003A699A61FB687A691A6200BF1C37BD4648
:10380C0080BC704780B487B000AFF860B9607A6054
:10381C00FB681B6A23F01002FB681A62FB689B6949
:10382C007B61FB681B6A3B617B6923F470437B61A2
:10383C007B681B037A6913437B613B6923F0A0030C
:10384C003B61BB681B013A6913433B61FB687A69B6
:10385C009A61FB683A691A6200BF1C37BD4680BC8E
:10386C00704780B485B000AF786039607B689B6826
:10387C00FB60FB6823F07003FB603A68FB68134342
:10388C0043F00703FB607B68FA689A6000BF14374B
:10389C00BD4680BC704780B487B000AFF860B9609B
:1038AC007A603B60FB689B687B617B6923F47F4398
:1038BC007B613B681A027B681A43BB6813437A69C5
:1038CC0013437B61FB687A699A6000BF1C37BD4665
:1038DC0080BC704780B485B000AF786039607B687D
:1038EC0093F83C30012B01D1022346E07B68012286
:1038FC0083F83C207B68022283F83D207B681B68A0
:10390C005B68FB607B681B689B68BB60FB6823F093
:10391C007003FB603B681B68FA681343FB607B68B1
:10392C001B68FA685A607B681B68164A93420ED073
:10393C007B681B68B3F1804F09D07B681B68124A07
:10394C00934204D07B681B68104A93420CD1BB682D
:10395C0023F08003BB603B685B68BA681343BB60B1
:10396C007B681B68BA689A607B68012283F83D20EB
:10397C007B68002283F83C20002318461437BD4690
:10398C0080BC7047002C014000040040000800403F
:10399C0070B500260C4D0D4C641BA410A64209D129
:1039AC0000F022F800260A4D0A4C641BA410A64213
:1039BC0005D170BD55F8043B98470136EEE755F834
:1039CC00043B98470136F2E7503B0008503B000897
:1039DC00503B0008543B000803460244934200D17C
:1039EC00704703F8011BF9E7F8B500BFF8BC08BC39
:1039FC009E467047F8B500BFF8BC08BC9E467047A1
:103A0C0000000000700000001E000000F800000024
:103A1C00AA000000320000009100000070000000BD
:103A2C001E00000002030405060708090A0B0C0D12
:103A3C000E0F10100000000000000000000000003D
:103A4C00000000000000000000000000000000006A
:103A5C000101010101010101010101010102020247
:103A6C00020202020203030303030303040404041B
:103A7C0004050505050606060607070707080808D6
:103A8C000909090A0A0A0B0B0B0C0C0D0D0D0E0E75
:103A9C000F0F1010111112121313141415151616F2
:103AAC0017181819191A1B1B1C1D1D1E1F2020214D
:103ABC00222323242526272728292A2B2C2D2E2F79
:103ACC00303132323334363738393A3B3C3D3E3F75
:103ADC0040424344454648494A4B4D4E4F51525340
:103AEC00555657595A5C5D5F606263656668696BD1
:103AFC006D6E7072737577787A7C7E7F8183858723
:103B0C00898A8C8E90929496989A9C9EA0A2A4A737
:103B1C00A9ABADAFB1B4B6B8BABDBFC1C4C6C8CB02
:103B2C00CDD0D2D5D7DADCDFE1E4E7E9ECEFF1F484
:103B3C00F7F9FCFF00000000000000000102030484
:043B4C000607080957
:043B50003101000837
:043B54000D01000857
:103B58000003050102040000000000001F0000002F
:103B68001F0000001F0000003E0000001F000000B2
:103B78005D0000001F0000007C0000001F00000026
:103B88009B0000001F000000BA0000001F0000009A
:103B9800D90000001F000000F80000001F0000000E
:0C3BA8000024F4001000000001000000E8
:04000005080020F5DA
:00000001FF
